{
  "_format": "hh-sol-artifact-1",
  "contractName": "NFTRecordKeeper",
  "sourceName": "contracts/NFTRecordKeeper.sol",
  "abi": [
    {
      "anonymous": false,
      "inputs": [
        {
          "indexed": false,
          "internalType": "address",
          "name": "",
          "type": "address"
        },
        {
          "indexed": false,
          "internalType": "address",
          "name": "",
          "type": "address"
        }
      ],
      "name": "TokenCreated",
      "type": "event"
    },
    {
      "inputs": [
        {
          "internalType": "address",
          "name": "mintor",
          "type": "address"
        },
        {
          "internalType": "address",
          "name": "tokenAddress",
          "type": "address"
        },
        {
          "internalType": "uint256",
          "name": "end",
          "type": "uint256"
        },
        {
          "internalType": "uint256",
          "name": "price",
          "type": "uint256"
        }
      ],
      "name": "bulkMintERC721",
      "outputs": [],
      "stateMutability": "nonpayable",
      "type": "function"
    },
    {
      "inputs": [
        {
          "internalType": "string",
          "name": "name",
          "type": "string"
        },
        {
          "internalType": "string",
          "name": "symbol",
          "type": "string"
        }
      ],
      "name": "createNFTCollection",
      "outputs": [],
      "stateMutability": "nonpayable",
      "type": "function"
    }
  ],
  "bytecode": "0x608060405234801561001057600080fd5b506134fb806100206000396000f3fe60806040523480156200001157600080fd5b50600436106200003a5760003560e01c806366223a18146200003f578063fd0222e9146200005f575b600080fd5b6200005d6004803603810190620000579190620003ad565b6200007f565b005b6200007d6004803603810190620000779190620004d2565b620000fe565b005b60008282604051620000919062000229565b6200009e929190620005cd565b604051809103906000f080158015620000bb573d6000803e3d6000fd5b5090507fd5f9bdf12adf29dab0248c349842c3822d53ae2bb4f36352f301630d018c81393382604051620000f192919062000619565b60405180910390a1505050565b6000808190505b83811015620002215760008573ffffffffffffffffffffffffffffffffffffffff1663a144819488866040518363ffffffff1660e01b81526004016200014d92919062000657565b6020604051808303816000875af11580156200016d573d6000803e3d6000fd5b505050506040513d601f19601f820116820180604052508101906200019391906200069b565b90506000808773ffffffffffffffffffffffffffffffffffffffff1673ffffffffffffffffffffffffffffffffffffffff16815260200190815260200160002081908060018154018082558091505060019003906000526020600020016000909190919091505582806200020790620006fc565b9350505080806200021890620006fc565b91505062000105565b505050505050565b612d7c806200074a83390190565b6000604051905090565b600080fd5b600080fd5b600080fd5b600080fd5b6000601f19601f8301169050919050565b7f4e487b7100000000000000000000000000000000000000000000000000000000600052604160045260246000fd5b620002a08262000255565b810181811067ffffffffffffffff82111715620002c257620002c162000266565b5b80604052505050565b6000620002d762000237565b9050620002e5828262000295565b919050565b600067ffffffffffffffff82111562000308576200030762000266565b5b620003138262000255565b9050602081019050919050565b82818337600083830152505050565b6000620003466200034084620002ea565b620002cb565b90508281526020810184848401111562000365576200036462000250565b5b6200037284828562000320565b509392505050565b600082601f8301126200039257620003916200024b565b5b8135620003a48482602086016200032f565b91505092915050565b60008060408385031215620003c757620003c662000241565b5b600083013567ffffffffffffffff811115620003e857620003e762000246565b5b620003f6858286016200037a565b925050602083013567ffffffffffffffff8111156200041a576200041962000246565b5b62000428858286016200037a565b9150509250929050565b600073ffffffffffffffffffffffffffffffffffffffff82169050919050565b60006200045f8262000432565b9050919050565b620004718162000452565b81146200047d57600080fd5b50565b600081359050620004918162000466565b92915050565b6000819050919050565b620004ac8162000497565b8114620004b857600080fd5b50565b600081359050620004cc81620004a1565b92915050565b60008060008060808587031215620004ef57620004ee62000241565b5b6000620004ff8782880162000480565b9450506020620005128782880162000480565b93505060406200052587828801620004bb565b92505060606200053887828801620004bb565b91505092959194509250565b600081519050919050565b600082825260208201905092915050565b60005b838110156200058057808201518184015260208101905062000563565b60008484015250505050565b6000620005998262000544565b620005a581856200054f565b9350620005b781856020860162000560565b620005c28162000255565b840191505092915050565b60006040820190508181036000830152620005e981856200058c565b90508181036020830152620005ff81846200058c565b90509392505050565b620006138162000452565b82525050565b600060408201905062000630600083018562000608565b6200063f602083018462000608565b9392505050565b620006518162000497565b82525050565b60006040820190506200066e600083018562000608565b6200067d602083018462000646565b9392505050565b6000815190506200069581620004a1565b92915050565b600060208284031215620006b457620006b362000241565b5b6000620006c48482850162000684565b91505092915050565b7f4e487b7100000000000000000000000000000000000000000000000000000000600052601160045260246000fd5b6000620007098262000497565b91507fffffffffffffffffffffffffffffffffffffffffffffffffffffffffffffffff82036200073e576200073d620006cd565b5b60018201905091905056fe60806040523480156200001157600080fd5b5060405162002d7c38038062002d7c8339818101604052810190620000379190620001fa565b818181600090816200004a9190620004ca565b5080600190816200005c9190620004ca565b5050505050620005b1565b6000604051905090565b600080fd5b600080fd5b600080fd5b600080fd5b6000601f19601f8301169050919050565b7f4e487b7100000000000000000000000000000000000000000000000000000000600052604160045260246000fd5b620000d08262000085565b810181811067ffffffffffffffff82111715620000f257620000f162000096565b5b80604052505050565b60006200010762000067565b9050620001158282620000c5565b919050565b600067ffffffffffffffff82111562000138576200013762000096565b5b620001438262000085565b9050602081019050919050565b60005b838110156200017057808201518184015260208101905062000153565b60008484015250505050565b6000620001936200018d846200011a565b620000fb565b905082815260208101848484011115620001b257620001b162000080565b5b620001bf84828562000150565b509392505050565b600082601f830112620001df57620001de6200007b565b5b8151620001f18482602086016200017c565b91505092915050565b6000806040838503121562000214576200021362000071565b5b600083015167ffffffffffffffff81111562000235576200023462000076565b5b6200024385828601620001c7565b925050602083015167ffffffffffffffff81111562000267576200026662000076565b5b6200027585828601620001c7565b9150509250929050565b600081519050919050565b7f4e487b7100000000000000000000000000000000000000000000000000000000600052602260045260246000fd5b60006002820490506001821680620002d257607f821691505b602082108103620002e857620002e76200028a565b5b50919050565b60008190508160005260206000209050919050565b60006020601f8301049050919050565b600082821b905092915050565b600060088302620003527fffffffffffffffffffffffffffffffffffffffffffffffffffffffffffffffff8262000313565b6200035e868362000313565b95508019841693508086168417925050509392505050565b6000819050919050565b6000819050919050565b6000620003ab620003a56200039f8462000376565b62000380565b62000376565b9050919050565b6000819050919050565b620003c7836200038a565b620003df620003d682620003b2565b84845462000320565b825550505050565b600090565b620003f6620003e7565b62000403818484620003bc565b505050565b5b818110156200042b576200041f600082620003ec565b60018101905062000409565b5050565b601f8211156200047a576200044481620002ee565b6200044f8462000303565b810160208510156200045f578190505b620004776200046e8562000303565b83018262000408565b50505b505050565b600082821c905092915050565b60006200049f600019846008026200047f565b1980831691505092915050565b6000620004ba83836200048c565b9150826002028217905092915050565b620004d5826200027f565b67ffffffffffffffff811115620004f157620004f062000096565b5b620004fd8254620002b9565b6200050a8282856200042f565b600060209050601f8311600181146200054257600084156200052d578287015190505b620005398582620004ac565b865550620005a9565b601f1984166200055286620002ee565b60005b828110156200057c5784890151825560018201915060208501945060208101905062000555565b868310156200059c578489015162000598601f8916826200048c565b8355505b6001600288020188555050505b505050505050565b6127bb80620005c16000396000f3fe6080604052600436106100fe5760003560e01c80636e02007d11610095578063a144819411610064578063a144819414610351578063a22cb4651461038e578063b88d4fde146103b7578063c87b56dd146103e0578063e985e9c51461041d576100fe565b80636e02007d146102a257806370a08231146102cd5780637bfe9efd1461030a57806395d89b4114610326576100fe565b806317b47cc4116100d157806317b47cc4146101d157806323b872dd1461021357806342842e0e1461023c5780636352211e14610265576100fe565b806301ffc9a71461010357806306fdde0314610140578063081812fc1461016b578063095ea7b3146101a8575b600080fd5b34801561010f57600080fd5b5061012a60048036038101906101259190611d38565b61045a565b6040516101379190611d80565b60405180910390f35b34801561014c57600080fd5b5061015561053c565b6040516101629190611e2b565b60405180910390f35b34801561017757600080fd5b50610192600480360381019061018d9190611e83565b6105ce565b60405161019f9190611ef1565b60405180910390f35b3480156101b457600080fd5b506101cf60048036038101906101ca9190611f38565b6105ea565b005b3480156101dd57600080fd5b506101f860048036038101906101f39190611e83565b610600565b60405161020a96959493929190611fa8565b60405180910390f35b34801561021f57600080fd5b5061023a60048036038101906102359190612009565b6106a9565b005b34801561024857600080fd5b50610263600480360381019061025e9190612009565b6107ab565b005b34801561027157600080fd5b5061028c60048036038101906102879190611e83565b6107cb565b6040516102999190611ef1565b60405180910390f35b3480156102ae57600080fd5b506102b76107dd565b6040516102c4919061205c565b60405180910390f35b3480156102d957600080fd5b506102f460048036038101906102ef9190612077565b6107e7565b604051610301919061205c565b60405180910390f35b610324600480360381019061031f91906120a4565b6108a1565b005b34801561033257600080fd5b5061033b610bc9565b6040516103489190611e2b565b60405180910390f35b34801561035d57600080fd5b5061037860048036038101906103739190611f38565b610c5b565b604051610385919061205c565b60405180910390f35b34801561039a57600080fd5b506103b560048036038101906103b09190612110565b610e21565b005b3480156103c357600080fd5b506103de60048036038101906103d99190612285565b610e37565b005b3480156103ec57600080fd5b5061040760048036038101906104029190611e83565b610e54565b6040516104149190611e2b565b60405180910390f35b34801561042957600080fd5b50610444600480360381019061043f9190612308565b610ebd565b6040516104519190611d80565b60405180910390f35b60007f80ac58cd000000000000000000000000000000000000000000000000000000007bffffffffffffffffffffffffffffffffffffffffffffffffffffffff1916827bffffffffffffffffffffffffffffffffffffffffffffffffffffffff1916148061052557507f5b5e139f000000000000000000000000000000000000000000000000000000007bffffffffffffffffffffffffffffffffffffffffffffffffffffffff1916827bffffffffffffffffffffffffffffffffffffffffffffffffffffffff1916145b80610535575061053482610f51565b5b9050919050565b60606000805461054b90612377565b80601f016020809104026020016040519081016040528092919081815260200182805461057790612377565b80156105c45780601f10610599576101008083540402835291602001916105c4565b820191906000526020600020905b8154815290600101906020018083116105a757829003601f168201915b5050505050905090565b60006105d982610fbb565b506105e382611043565b9050919050565b6105fc82826105f7611080565b611088565b5050565b60076020528060005260406000206000915090508060000160009054906101000a900473ffffffffffffffffffffffffffffffffffffffff16908060010154908060020160009054906101000a900473ffffffffffffffffffffffffffffffffffffffff16908060030160009054906101000a900473ffffffffffffffffffffffffffffffffffffffff16908060040154908060050160009054906101000a900460ff16905086565b600073ffffffffffffffffffffffffffffffffffffffff168273ffffffffffffffffffffffffffffffffffffffff160361071b5760006040517f64a0ae920000000000000000000000000000000000000000000000000000000081526004016107129190611ef1565b60405180910390fd5b600061072f838361072a611080565b61109a565b90508373ffffffffffffffffffffffffffffffffffffffff168173ffffffffffffffffffffffffffffffffffffffff16146107a5578382826040517f64283d7b00000000000000000000000000000000000000000000000000000000815260040161079c939291906123a8565b60405180910390fd5b50505050565b6107c683838360405180602001604052806000815250610e37565b505050565b60006107d682610fbb565b9050919050565b6000600654905090565b60008073ffffffffffffffffffffffffffffffffffffffff168273ffffffffffffffffffffffffffffffffffffffff160361085a5760006040517f89c62b640000000000000000000000000000000000000000000000000000000081526004016108519190611ef1565b60405180910390fd5b600360008373ffffffffffffffffffffffffffffffffffffffff1673ffffffffffffffffffffffffffffffffffffffff168152602001908152602001600020549050919050565b6000600760008481526020019081526020016000206004015490506000600760008581526020019081526020016000206040518060c00160405290816000820160009054906101000a900473ffffffffffffffffffffffffffffffffffffffff1673ffffffffffffffffffffffffffffffffffffffff1673ffffffffffffffffffffffffffffffffffffffff168152602001600182015481526020016002820160009054906101000a900473ffffffffffffffffffffffffffffffffffffffff1673ffffffffffffffffffffffffffffffffffffffff1673ffffffffffffffffffffffffffffffffffffffff1681526020016003820160009054906101000a900473ffffffffffffffffffffffffffffffffffffffff1673ffffffffffffffffffffffffffffffffffffffff1673ffffffffffffffffffffffffffffffffffffffff168152602001600482015481526020016005820160009054906101000a900460ff161515151581525050905081341015610a52576040517f08c379a0000000000000000000000000000000000000000000000000000000008152600401610a4990612451565b60405180910390fd5b8060a0015115610a97576040517f08c379a0000000000000000000000000000000000000000000000000000000008152600401610a8e906124bd565b60405180910390fd5b806040015173ffffffffffffffffffffffffffffffffffffffff166108fc82608001519081150290604051600060405180830381858888f19350505050158015610ae5573d6000803e3d6000fd5b5060018160a0019015159081151581525050806000015173ffffffffffffffffffffffffffffffffffffffff166323b872dd826040015185876040518463ffffffff1660e01b8152600401610b3c9392919061253c565b600060405180830381600087803b158015610b5657600080fd5b505af1158015610b6a573d6000803e3d6000fd5b50505050826007600086815260200190815260200160002060030160006101000a81548173ffffffffffffffffffffffffffffffffffffffff021916908373ffffffffffffffffffffffffffffffffffffffff16021790555050505050565b606060018054610bd890612377565b80601f0160208091040260200160405190810160405280929190818152602001828054610c0490612377565b8015610c515780601f10610c2657610100808354040283529160200191610c51565b820191906000526020600020905b815481529060010190602001808311610c3457829003601f168201915b5050505050905090565b6000806006549050610c6d84826112b4565b6040518060c001604052803073ffffffffffffffffffffffffffffffffffffffff1681526020018281526020018573ffffffffffffffffffffffffffffffffffffffff168152602001600073ffffffffffffffffffffffffffffffffffffffff168152602001848152602001600015158152506007600083815260200190815260200160002060008201518160000160006101000a81548173ffffffffffffffffffffffffffffffffffffffff021916908373ffffffffffffffffffffffffffffffffffffffff1602179055506020820151816001015560408201518160020160006101000a81548173ffffffffffffffffffffffffffffffffffffffff021916908373ffffffffffffffffffffffffffffffffffffffff16021790555060608201518160030160006101000a81548173ffffffffffffffffffffffffffffffffffffffff021916908373ffffffffffffffffffffffffffffffffffffffff1602179055506080820151816004015560a08201518160050160006101000a81548160ff02191690831515021790555090505060066000815480929190610e12906125a2565b91905055508091505092915050565b610e33610e2c611080565b83836112d2565b5050565b610e428484846106a9565b610e4e84848484611441565b50505050565b6060610e5f82610fbb565b506000610e6a6115f8565b90506000815111610e8a5760405180602001604052806000815250610eb5565b80610e948461160f565b604051602001610ea5929190612626565b6040516020818303038152906040525b915050919050565b6000600560008473ffffffffffffffffffffffffffffffffffffffff1673ffffffffffffffffffffffffffffffffffffffff16815260200190815260200160002060008373ffffffffffffffffffffffffffffffffffffffff1673ffffffffffffffffffffffffffffffffffffffff16815260200190815260200160002060009054906101000a900460ff16905092915050565b60007f01ffc9a7000000000000000000000000000000000000000000000000000000007bffffffffffffffffffffffffffffffffffffffffffffffffffffffff1916827bffffffffffffffffffffffffffffffffffffffffffffffffffffffff1916149050919050565b600080610fc7836116dd565b9050600073ffffffffffffffffffffffffffffffffffffffff168173ffffffffffffffffffffffffffffffffffffffff160361103a57826040517f7e273289000000000000000000000000000000000000000000000000000000008152600401611031919061205c565b60405180910390fd5b80915050919050565b60006004600083815260200190815260200160002060009054906101000a900473ffffffffffffffffffffffffffffffffffffffff169050919050565b600033905090565b611095838383600161171a565b505050565b6000806110a6846116dd565b9050600073ffffffffffffffffffffffffffffffffffffffff168373ffffffffffffffffffffffffffffffffffffffff16146110e8576110e78184866118df565b5b600073ffffffffffffffffffffffffffffffffffffffff168173ffffffffffffffffffffffffffffffffffffffff16146111795761112a60008560008061171a565b6001600360008373ffffffffffffffffffffffffffffffffffffffff1673ffffffffffffffffffffffffffffffffffffffff168152602001908152602001600020600082825403925050819055505b600073ffffffffffffffffffffffffffffffffffffffff168573ffffffffffffffffffffffffffffffffffffffff16146111fc576001600360008773ffffffffffffffffffffffffffffffffffffffff1673ffffffffffffffffffffffffffffffffffffffff168152602001908152602001600020600082825401925050819055505b846002600086815260200190815260200160002060006101000a81548173ffffffffffffffffffffffffffffffffffffffff021916908373ffffffffffffffffffffffffffffffffffffffff160217905550838573ffffffffffffffffffffffffffffffffffffffff168273ffffffffffffffffffffffffffffffffffffffff167fddf252ad1be2c89b69c2b068fc378daa952ba7f163c4a11628f55a4df523b3ef60405160405180910390a4809150509392505050565b6112ce8282604051806020016040528060008152506119a3565b5050565b600073ffffffffffffffffffffffffffffffffffffffff168273ffffffffffffffffffffffffffffffffffffffff160361134357816040517f5b08ba1800000000000000000000000000000000000000000000000000000000815260040161133a9190611ef1565b60405180910390fd5b80600560008573ffffffffffffffffffffffffffffffffffffffff1673ffffffffffffffffffffffffffffffffffffffff16815260200190815260200160002060008473ffffffffffffffffffffffffffffffffffffffff1673ffffffffffffffffffffffffffffffffffffffff16815260200190815260200160002060006101000a81548160ff0219169083151502179055508173ffffffffffffffffffffffffffffffffffffffff168373ffffffffffffffffffffffffffffffffffffffff167f17307eab39ab6107e8899845ad3d59bd9653f200f220920489ca2b5937696c31836040516114349190611d80565b60405180910390a3505050565b60008373ffffffffffffffffffffffffffffffffffffffff163b11156115f2578273ffffffffffffffffffffffffffffffffffffffff1663150b7a02611485611080565b8685856040518563ffffffff1660e01b81526004016114a7949392919061269f565b6020604051808303816000875af19250505080156114e357506040513d601f19601f820116820180604052508101906114e09190612700565b60015b611567573d8060008114611513576040519150601f19603f3d011682016040523d82523d6000602084013e611518565b606091505b50600081510361155f57836040517f64a0ae920000000000000000000000000000000000000000000000000000000081526004016115569190611ef1565b60405180910390fd5b805181602001fd5b63150b7a0260e01b7bffffffffffffffffffffffffffffffffffffffffffffffffffffffff1916817bffffffffffffffffffffffffffffffffffffffffffffffffffffffff1916146115f057836040517f64a0ae920000000000000000000000000000000000000000000000000000000081526004016115e79190611ef1565b60405180910390fd5b505b50505050565b606060405180602001604052806000815250905090565b60606000600161161e846119bf565b01905060008167ffffffffffffffff81111561163d5761163c61215a565b5b6040519080825280601f01601f19166020018201604052801561166f5781602001600182028036833780820191505090505b509050600082602001820190505b6001156116d2578080600190039150507f3031323334353637383961626364656600000000000000000000000000000000600a86061a8153600a85816116c6576116c561272d565b5b0494506000850361167d575b819350505050919050565b60006002600083815260200190815260200160002060009054906101000a900473ffffffffffffffffffffffffffffffffffffffff169050919050565b80806117535750600073ffffffffffffffffffffffffffffffffffffffff168273ffffffffffffffffffffffffffffffffffffffff1614155b1561188757600061176384610fbb565b9050600073ffffffffffffffffffffffffffffffffffffffff168373ffffffffffffffffffffffffffffffffffffffff16141580156117ce57508273ffffffffffffffffffffffffffffffffffffffff168173ffffffffffffffffffffffffffffffffffffffff1614155b80156117e157506117df8184610ebd565b155b1561182357826040517fa9fbf51f00000000000000000000000000000000000000000000000000000000815260040161181a9190611ef1565b60405180910390fd5b811561188557838573ffffffffffffffffffffffffffffffffffffffff168273ffffffffffffffffffffffffffffffffffffffff167f8c5be1e5ebec7d5bd14f71427d1e84f3dd0314c0f7b2291e5b200ac8c7c3b92560405160405180910390a45b505b836004600085815260200190815260200160002060006101000a81548173ffffffffffffffffffffffffffffffffffffffff021916908373ffffffffffffffffffffffffffffffffffffffff16021790555050505050565b6118ea838383611b12565b61199e57600073ffffffffffffffffffffffffffffffffffffffff168373ffffffffffffffffffffffffffffffffffffffff160361195f57806040517f7e273289000000000000000000000000000000000000000000000000000000008152600401611956919061205c565b60405180910390fd5b81816040517f177e802f00000000000000000000000000000000000000000000000000000000815260040161199592919061275c565b60405180910390fd5b505050565b6119ad8383611bd3565b6119ba6000848484611441565b505050565b600080600090507a184f03e93ff9f4daa797ed6e38ed64bf6a1f0100000000000000008310611a1d577a184f03e93ff9f4daa797ed6e38ed64bf6a1f0100000000000000008381611a1357611a1261272d565b5b0492506040810190505b6d04ee2d6d415b85acef81000000008310611a5a576d04ee2d6d415b85acef81000000008381611a5057611a4f61272d565b5b0492506020810190505b662386f26fc100008310611a8957662386f26fc100008381611a7f57611a7e61272d565b5b0492506010810190505b6305f5e1008310611ab2576305f5e1008381611aa857611aa761272d565b5b0492506008810190505b6127108310611ad7576127108381611acd57611acc61272d565b5b0492506004810190505b60648310611afa5760648381611af057611aef61272d565b5b0492506002810190505b600a8310611b09576001810190505b80915050919050565b60008073ffffffffffffffffffffffffffffffffffffffff168373ffffffffffffffffffffffffffffffffffffffff1614158015611bca57508273ffffffffffffffffffffffffffffffffffffffff168473ffffffffffffffffffffffffffffffffffffffff161480611b8b5750611b8a8484610ebd565b5b80611bc957508273ffffffffffffffffffffffffffffffffffffffff16611bb183611043565b73ffffffffffffffffffffffffffffffffffffffff16145b5b90509392505050565b600073ffffffffffffffffffffffffffffffffffffffff168273ffffffffffffffffffffffffffffffffffffffff1603611c455760006040517f64a0ae92000000000000000000000000000000000000000000000000000000008152600401611c3c9190611ef1565b60405180910390fd5b6000611c538383600061109a565b9050600073ffffffffffffffffffffffffffffffffffffffff168173ffffffffffffffffffffffffffffffffffffffff1614611cc75760006040517f73c6ac6e000000000000000000000000000000000000000000000000000000008152600401611cbe9190611ef1565b60405180910390fd5b505050565b6000604051905090565b600080fd5b600080fd5b60007fffffffff0000000000000000000000000000000000000000000000000000000082169050919050565b611d1581611ce0565b8114611d2057600080fd5b50565b600081359050611d3281611d0c565b92915050565b600060208284031215611d4e57611d4d611cd6565b5b6000611d5c84828501611d23565b91505092915050565b60008115159050919050565b611d7a81611d65565b82525050565b6000602082019050611d956000830184611d71565b92915050565b600081519050919050565b600082825260208201905092915050565b60005b83811015611dd5578082015181840152602081019050611dba565b60008484015250505050565b6000601f19601f8301169050919050565b6000611dfd82611d9b565b611e078185611da6565b9350611e17818560208601611db7565b611e2081611de1565b840191505092915050565b60006020820190508181036000830152611e458184611df2565b905092915050565b6000819050919050565b611e6081611e4d565b8114611e6b57600080fd5b50565b600081359050611e7d81611e57565b92915050565b600060208284031215611e9957611e98611cd6565b5b6000611ea784828501611e6e565b91505092915050565b600073ffffffffffffffffffffffffffffffffffffffff82169050919050565b6000611edb82611eb0565b9050919050565b611eeb81611ed0565b82525050565b6000602082019050611f066000830184611ee2565b92915050565b611f1581611ed0565b8114611f2057600080fd5b50565b600081359050611f3281611f0c565b92915050565b60008060408385031215611f4f57611f4e611cd6565b5b6000611f5d85828601611f23565b9250506020611f6e85828601611e6e565b9150509250929050565b611f8181611e4d565b82525050565b6000611f9282611eb0565b9050919050565b611fa281611f87565b82525050565b600060c082019050611fbd6000830189611ee2565b611fca6020830188611f78565b611fd76040830187611f99565b611fe46060830186611f99565b611ff16080830185611f78565b611ffe60a0830184611d71565b979650505050505050565b60008060006060848603121561202257612021611cd6565b5b600061203086828701611f23565b935050602061204186828701611f23565b925050604061205286828701611e6e565b9150509250925092565b60006020820190506120716000830184611f78565b92915050565b60006020828403121561208d5761208c611cd6565b5b600061209b84828501611f23565b91505092915050565b600080604083850312156120bb576120ba611cd6565b5b60006120c985828601611e6e565b92505060206120da85828601611f23565b9150509250929050565b6120ed81611d65565b81146120f857600080fd5b50565b60008135905061210a816120e4565b92915050565b6000806040838503121561212757612126611cd6565b5b600061213585828601611f23565b9250506020612146858286016120fb565b9150509250929050565b600080fd5b600080fd5b7f4e487b7100000000000000000000000000000000000000000000000000000000600052604160045260246000fd5b61219282611de1565b810181811067ffffffffffffffff821117156121b1576121b061215a565b5b80604052505050565b60006121c4611ccc565b90506121d08282612189565b919050565b600067ffffffffffffffff8211156121f0576121ef61215a565b5b6121f982611de1565b9050602081019050919050565b82818337600083830152505050565b6000612228612223846121d5565b6121ba565b90508281526020810184848401111561224457612243612155565b5b61224f848285612206565b509392505050565b600082601f83011261226c5761226b612150565b5b813561227c848260208601612215565b91505092915050565b6000806000806080858703121561229f5761229e611cd6565b5b60006122ad87828801611f23565b94505060206122be87828801611f23565b93505060406122cf87828801611e6e565b925050606085013567ffffffffffffffff8111156122f0576122ef611cdb565b5b6122fc87828801612257565b91505092959194509250565b6000806040838503121561231f5761231e611cd6565b5b600061232d85828601611f23565b925050602061233e85828601611f23565b9150509250929050565b7f4e487b7100000000000000000000000000000000000000000000000000000000600052602260045260246000fd5b6000600282049050600182168061238f57607f821691505b6020821081036123a2576123a1612348565b5b50919050565b60006060820190506123bd6000830186611ee2565b6123ca6020830185611f78565b6123d76040830184611ee2565b949350505050565b7f6e6f7420656e6f756768206d6174696320746f20636f766572206974656d207060008201527f7269636520616e64206d61726b65742066656500000000000000000000000000602082015250565b600061243b603383611da6565b9150612446826123df565b604082019050919050565b6000602082019050818103600083015261246a8161242e565b9050919050565b7f6974656d20616c726561647920736f6c64000000000000000000000000000000600082015250565b60006124a7601183611da6565b91506124b282612471565b602082019050919050565b600060208201905081810360008301526124d68161249a565b9050919050565b6000819050919050565b60006125026124fd6124f884611eb0565b6124dd565b611eb0565b9050919050565b6000612514826124e7565b9050919050565b600061252682612509565b9050919050565b6125368161251b565b82525050565b6000606082019050612551600083018661252d565b61255e6020830185611ee2565b61256b6040830184611f78565b949350505050565b7f4e487b7100000000000000000000000000000000000000000000000000000000600052601160045260246000fd5b60006125ad82611e4d565b91507fffffffffffffffffffffffffffffffffffffffffffffffffffffffffffffffff82036125df576125de612573565b5b600182019050919050565b600081905092915050565b600061260082611d9b565b61260a81856125ea565b935061261a818560208601611db7565b80840191505092915050565b600061263282856125f5565b915061263e82846125f5565b91508190509392505050565b600081519050919050565b600082825260208201905092915050565b60006126718261264a565b61267b8185612655565b935061268b818560208601611db7565b61269481611de1565b840191505092915050565b60006080820190506126b46000830187611ee2565b6126c16020830186611ee2565b6126ce6040830185611f78565b81810360608301526126e08184612666565b905095945050505050565b6000815190506126fa81611d0c565b92915050565b60006020828403121561271657612715611cd6565b5b6000612724848285016126eb565b91505092915050565b7f4e487b7100000000000000000000000000000000000000000000000000000000600052601260045260246000fd5b60006040820190506127716000830185611ee2565b61277e6020830184611f78565b939250505056fea264697066735822122049e5b55375a5257e83fe8827d0c045a318bcdc9e3b466d30555c6b387ad65e7764736f6c63430008140033a2646970667358221220fb8a79ae5df292e2368571ecfa26c2f1ce18ee3c1ef7f722f7271ae40538f0f464736f6c63430008140033",
  "linkReferences": {},
  "deployedLinkReferences": {}
}